{
  "_format": "hh-sol-artifact-1",
  "contractName": "CedarERC721DropV0",
  "sourceName": "contracts/cedar/drop/CedarERC721DropV0.sol",
  "abi": [
    {
      "inputs": [],
      "stateMutability": "nonpayable",
      "type": "constructor"
    },
    {
      "inputs": [],
      "name": "Bot",
      "type": "error"
    },
    {
      "inputs": [],
      "name": "CrossedLimit",
      "type": "error"
    },
    {
      "inputs": [],
      "name": "InvalidIndex",
      "type": "error"
    },
    {
      "inputs": [],
      "name": "InvalidPermission",
      "type": "error"
    },
    {
      "inputs": [],
      "name": "InvalidPrice",
      "type": "error"
    },
    {
      "inputs": [],
      "name": "InvalidProof",
      "type": "error"
    },
    {
      "inputs": [],
      "name": "InvalidQuantity",
      "type": "error"
    },
    {
      "inputs": [],
      "name": "InvalidTime",
      "type": "error"
    },
    {
      "inputs": [],
      "name": "MaxBps",
      "type": "error"
    },
    {
      "inputs": [],
      "name": "NothingToReveal",
      "type": "error"
    },
    {
      "inputs": [],
      "name": "ST",
      "type": "error"
    },
    {
      "anonymous": false,
      "inputs": [
        {
          "indexed": false,
          "internalType": "string",
          "name": "userAgreement",
          "type": "string"
        },
        {
          "indexed": false,
          "internalType": "address",
          "name": "user",
          "type": "address"
        }
      ],
      "name": "AcceptTerms",
      "type": "event"
    },
    {
      "anonymous": false,
      "inputs": [
        {
          "indexed": true,
          "internalType": "address",
          "name": "owner",
          "type": "address"
        },
        {
          "indexed": true,
          "internalType": "address",
          "name": "approved",
          "type": "address"
        },
        {
          "indexed": true,
          "internalType": "uint256",
          "name": "tokenId",
          "type": "uint256"
        }
      ],
      "name": "Approval",
      "type": "event"
    },
    {
      "anonymous": false,
      "inputs": [
        {
          "indexed": true,
          "internalType": "address",
          "name": "owner",
          "type": "address"
        },
        {
          "indexed": true,
          "internalType": "address",
          "name": "operator",
          "type": "address"
        },
        {
          "indexed": false,
          "internalType": "bool",
          "name": "approved",
          "type": "bool"
        }
      ],
      "name": "ApprovalForAll",
      "type": "event"
    },
    {
      "anonymous": false,
      "inputs": [
        {
          "components": [
            {
              "internalType": "uint256",
              "name": "startTimestamp",
              "type": "uint256"
            },
            {
              "internalType": "uint256",
              "name": "maxClaimableSupply",
              "type": "uint256"
            },
            {
              "internalType": "uint256",
              "name": "supplyClaimed",
              "type": "uint256"
            },
            {
              "internalType": "uint256",
              "name": "quantityLimitPerTransaction",
              "type": "uint256"
            },
            {
              "internalType": "uint256",
              "name": "waitTimeInSecondsBetweenClaims",
              "type": "uint256"
            },
            {
              "internalType": "bytes32",
              "name": "merkleRoot",
              "type": "bytes32"
            },
            {
              "internalType": "uint256",
              "name": "pricePerToken",
              "type": "uint256"
            },
            {
              "internalType": "address",
              "name": "currency",
              "type": "address"
            }
          ],
          "indexed": false,
          "internalType": "struct IDropClaimConditionV0.ClaimCondition[]",
          "name": "claimConditions",
          "type": "tuple[]"
        }
      ],
      "name": "ClaimConditionsUpdated",
      "type": "event"
    },
    {
      "anonymous": false,
      "inputs": [
        {
          "indexed": false,
          "internalType": "address",
          "name": "newRoyaltyRecipient",
          "type": "address"
        },
        {
          "indexed": false,
          "internalType": "uint256",
          "name": "newRoyaltyBps",
          "type": "uint256"
        }
      ],
      "name": "DefaultRoyalty",
      "type": "event"
    },
    {
      "anonymous": false,
      "inputs": [
        {
          "indexed": false,
          "internalType": "bool",
          "name": "_status",
          "type": "bool"
        }
      ],
      "name": "GreenlistStatus",
      "type": "event"
    },
    {
      "anonymous": false,
      "inputs": [
        {
          "indexed": false,
          "internalType": "uint256",
          "name": "maxTotalSupply",
          "type": "uint256"
        }
      ],
      "name": "MaxTotalSupplyUpdated",
      "type": "event"
    },
    {
      "anonymous": false,
      "inputs": [
        {
          "indexed": false,
          "internalType": "uint256",
          "name": "count",
          "type": "uint256"
        }
      ],
      "name": "MaxWalletClaimCountUpdated",
      "type": "event"
    },
    {
      "anonymous": false,
      "inputs": [
        {
          "indexed": false,
          "internalType": "uint256",
          "name": "endTokenId",
          "type": "uint256"
        },
        {
          "indexed": false,
          "internalType": "string",
          "name": "revealedURI",
          "type": "string"
        }
      ],
      "name": "NFTRevealed",
      "type": "event"
    },
    {
      "anonymous": false,
      "inputs": [
        {
          "indexed": false,
          "internalType": "address",
          "name": "prevOwner",
          "type": "address"
        },
        {
          "indexed": false,
          "internalType": "address",
          "name": "newOwner",
          "type": "address"
        }
      ],
      "name": "OwnerUpdated",
      "type": "event"
    },
    {
      "anonymous": false,
      "inputs": [
        {
          "indexed": true,
          "internalType": "address",
          "name": "recipient",
          "type": "address"
        }
      ],
      "name": "PrimarySaleRecipientUpdated",
      "type": "event"
    },
    {
      "anonymous": false,
      "inputs": [
        {
          "indexed": true,
          "internalType": "bytes32",
          "name": "role",
          "type": "bytes32"
        },
        {
          "indexed": true,
          "internalType": "bytes32",
          "name": "previousAdminRole",
          "type": "bytes32"
        },
        {
          "indexed": true,
          "internalType": "bytes32",
          "name": "newAdminRole",
          "type": "bytes32"
        }
      ],
      "name": "RoleAdminChanged",
      "type": "event"
    },
    {
      "anonymous": false,
      "inputs": [
        {
          "indexed": true,
          "internalType": "bytes32",
          "name": "role",
          "type": "bytes32"
        },
        {
          "indexed": true,
          "internalType": "address",
          "name": "account",
          "type": "address"
        },
        {
          "indexed": true,
          "internalType": "address",
          "name": "sender",
          "type": "address"
        }
      ],
      "name": "RoleGranted",
      "type": "event"
    },
    {
      "anonymous": false,
      "inputs": [
        {
          "indexed": true,
          "internalType": "bytes32",
          "name": "role",
          "type": "bytes32"
        },
        {
          "indexed": true,
          "internalType": "address",
          "name": "account",
          "type": "address"
        },
        {
          "indexed": true,
          "internalType": "address",
          "name": "sender",
          "type": "address"
        }
      ],
      "name": "RoleRevoked",
      "type": "event"
    },
    {
      "anonymous": false,
      "inputs": [
        {
          "indexed": true,
          "internalType": "uint256",
          "name": "tokenId",
          "type": "uint256"
        },
        {
          "indexed": false,
          "internalType": "address",
          "name": "royaltyRecipient",
          "type": "address"
        },
        {
          "indexed": false,
          "internalType": "uint256",
          "name": "royaltyBps",
          "type": "uint256"
        }
      ],
      "name": "RoyaltyForToken",
      "type": "event"
    },
    {
      "anonymous": false,
      "inputs": [
        {
          "indexed": false,
          "internalType": "bool",
          "name": "status",
          "type": "bool"
        }
      ],
      "name": "TermsActive",
      "type": "event"
    },
    {
      "anonymous": false,
      "inputs": [
        {
          "indexed": true,
          "internalType": "uint256",
          "name": "claimConditionIndex",
          "type": "uint256"
        },
        {
          "indexed": true,
          "internalType": "address",
          "name": "claimer",
          "type": "address"
        },
        {
          "indexed": true,
          "internalType": "address",
          "name": "receiver",
          "type": "address"
        },
        {
          "indexed": false,
          "internalType": "uint256",
          "name": "startTokenId",
          "type": "uint256"
        },
        {
          "indexed": false,
          "internalType": "uint256",
          "name": "quantityClaimed",
          "type": "uint256"
        }
      ],
      "name": "TokensClaimed",
      "type": "event"
    },
    {
      "anonymous": false,
      "inputs": [
        {
          "indexed": false,
          "internalType": "uint256",
          "name": "startTokenId",
          "type": "uint256"
        },
        {
          "indexed": false,
          "internalType": "uint256",
          "name": "endTokenId",
          "type": "uint256"
        },
        {
          "indexed": false,
          "internalType": "string",
          "name": "baseURI",
          "type": "string"
        },
        {
          "indexed": false,
          "internalType": "bytes",
          "name": "encryptedBaseURI",
          "type": "bytes"
        }
      ],
      "name": "TokensLazyMinted",
      "type": "event"
    },
    {
      "anonymous": false,
      "inputs": [
        {
          "indexed": true,
          "internalType": "address",
          "name": "from",
          "type": "address"
        },
        {
          "indexed": true,
          "internalType": "address",
          "name": "to",
          "type": "address"
        },
        {
          "indexed": true,
          "internalType": "uint256",
          "name": "tokenId",
          "type": "uint256"
        }
      ],
      "name": "Transfer",
      "type": "event"
    },
    {
      "anonymous": false,
      "inputs": [
        {
          "indexed": true,
          "internalType": "address",
          "name": "wallet",
          "type": "address"
        },
        {
          "indexed": false,
          "internalType": "uint256",
          "name": "count",
          "type": "uint256"
        }
      ],
      "name": "WalletClaimCountUpdated",
      "type": "event"
    },
    {
      "inputs": [],
      "name": "DEFAULT_ADMIN_ROLE",
      "outputs": [
        {
          "internalType": "bytes32",
          "name": "",
          "type": "bytes32"
        }
      ],
      "stateMutability": "view",
      "type": "function"
    },
    {
      "inputs": [],
      "name": "acceptTerms",
      "outputs": [],
      "stateMutability": "nonpayable",
      "type": "function"
    },
    {
      "inputs": [
        {
          "internalType": "address",
          "name": "to",
          "type": "address"
        },
        {
          "internalType": "uint256",
          "name": "tokenId",
          "type": "uint256"
        }
      ],
      "name": "approve",
      "outputs": [],
      "stateMutability": "nonpayable",
      "type": "function"
    },
    {
      "inputs": [
        {
          "internalType": "address",
          "name": "owner",
          "type": "address"
        }
      ],
      "name": "balanceOf",
      "outputs": [
        {
          "internalType": "uint256",
          "name": "",
          "type": "uint256"
        }
      ],
      "stateMutability": "view",
      "type": "function"
    },
    {
      "inputs": [
        {
          "internalType": "uint256",
          "name": "",
          "type": "uint256"
        }
      ],
      "name": "baseURIIndices",
      "outputs": [
        {
          "internalType": "uint256",
          "name": "",
          "type": "uint256"
        }
      ],
      "stateMutability": "view",
      "type": "function"
    },
    {
      "inputs": [
        {
          "internalType": "uint256",
          "name": "tokenId",
          "type": "uint256"
        }
      ],
      "name": "burn",
      "outputs": [],
      "stateMutability": "nonpayable",
      "type": "function"
    },
    {
      "inputs": [
        {
          "internalType": "address",
          "name": "_account",
          "type": "address"
        },
        {
          "internalType": "bytes",
          "name": "_signature",
          "type": "bytes"
        }
      ],
      "name": "checkSignature",
      "outputs": [
        {
          "internalType": "bool",
          "name": "",
          "type": "bool"
        }
      ],
      "stateMutability": "view",
      "type": "function"
    },
    {
      "inputs": [
        {
          "internalType": "address",
          "name": "_receiver",
          "type": "address"
        },
        {
          "internalType": "uint256",
          "name": "_quantity",
          "type": "uint256"
        },
        {
          "internalType": "address",
          "name": "_currency",
          "type": "address"
        },
        {
          "internalType": "uint256",
          "name": "_pricePerToken",
          "type": "uint256"
        },
        {
          "internalType": "bytes32[]",
          "name": "_proofs",
          "type": "bytes32[]"
        },
        {
          "internalType": "uint256",
          "name": "_proofMaxQuantityPerTransaction",
          "type": "uint256"
        }
      ],
      "name": "claim",
      "outputs": [],
      "stateMutability": "payable",
      "type": "function"
    },
    {
      "inputs": [],
      "name": "claimCondition",
      "outputs": [
        {
          "internalType": "uint256",
          "name": "currentStartId",
          "type": "uint256"
        },
        {
          "internalType": "uint256",
          "name": "count",
          "type": "uint256"
        }
      ],
      "stateMutability": "view",
      "type": "function"
    },
    {
      "inputs": [],
      "name": "contractType",
      "outputs": [
        {
          "internalType": "bytes32",
          "name": "",
          "type": "bytes32"
        }
      ],
      "stateMutability": "pure",
      "type": "function"
    },
    {
      "inputs": [],
      "name": "contractURI",
      "outputs": [
        {
          "internalType": "string",
          "name": "",
          "type": "string"
        }
      ],
      "stateMutability": "view",
      "type": "function"
    },
    {
      "inputs": [],
      "name": "contractVersion",
      "outputs": [
        {
          "internalType": "uint8",
          "name": "",
          "type": "uint8"
        }
      ],
      "stateMutability": "pure",
      "type": "function"
    },
    {
      "inputs": [
        {
          "internalType": "bytes",
          "name": "data",
          "type": "bytes"
        },
        {
          "internalType": "bytes",
          "name": "key",
          "type": "bytes"
        }
      ],
      "name": "encryptDecrypt",
      "outputs": [
        {
          "internalType": "bytes",
          "name": "result",
          "type": "bytes"
        }
      ],
      "stateMutability": "pure",
      "type": "function"
    },
    {
      "inputs": [
        {
          "internalType": "uint256",
          "name": "",
          "type": "uint256"
        }
      ],
      "name": "encryptedBaseURI",
      "outputs": [
        {
          "internalType": "bytes",
          "name": "",
          "type": "bytes"
        }
      ],
      "stateMutability": "view",
      "type": "function"
    },
    {
      "inputs": [],
      "name": "getActiveClaimConditionId",
      "outputs": [
        {
          "internalType": "uint256",
          "name": "",
          "type": "uint256"
        }
      ],
      "stateMutability": "view",
      "type": "function"
    },
    {
      "inputs": [
        {
          "internalType": "address",
          "name": "_address",
          "type": "address"
        }
      ],
      "name": "getAgreementStatus",
      "outputs": [
        {
          "internalType": "bool",
          "name": "sig",
          "type": "bool"
        }
      ],
      "stateMutability": "view",
      "type": "function"
    },
    {
      "inputs": [
        {
          "internalType": "uint256",
          "name": "tokenId",
          "type": "uint256"
        }
      ],
      "name": "getApproved",
      "outputs": [
        {
          "internalType": "address",
          "name": "",
          "type": "address"
        }
      ],
      "stateMutability": "view",
      "type": "function"
    },
    {
      "inputs": [],
      "name": "getBaseURICount",
      "outputs": [
        {
          "internalType": "uint256",
          "name": "",
          "type": "uint256"
        }
      ],
      "stateMutability": "view",
      "type": "function"
    },
    {
      "inputs": [
        {
          "internalType": "uint256",
          "name": "_conditionId",
          "type": "uint256"
        }
      ],
      "name": "getClaimConditionById",
      "outputs": [
        {
          "components": [
            {
              "internalType": "uint256",
              "name": "startTimestamp",
              "type": "uint256"
            },
            {
              "internalType": "uint256",
              "name": "maxClaimableSupply",
              "type": "uint256"
            },
            {
              "internalType": "uint256",
              "name": "supplyClaimed",
              "type": "uint256"
            },
            {
              "internalType": "uint256",
              "name": "quantityLimitPerTransaction",
              "type": "uint256"
            },
            {
              "internalType": "uint256",
              "name": "waitTimeInSecondsBetweenClaims",
              "type": "uint256"
            },
            {
              "internalType": "bytes32",
              "name": "merkleRoot",
              "type": "bytes32"
            },
            {
              "internalType": "uint256",
              "name": "pricePerToken",
              "type": "uint256"
            },
            {
              "internalType": "address",
              "name": "currency",
              "type": "address"
            }
          ],
          "internalType": "struct IDropClaimConditionV0.ClaimCondition",
          "name": "condition",
          "type": "tuple"
        }
      ],
      "stateMutability": "view",
      "type": "function"
    },
    {
      "inputs": [
        {
          "internalType": "uint256",
          "name": "_conditionId",
          "type": "uint256"
        },
        {
          "internalType": "address",
          "name": "_claimer",
          "type": "address"
        }
      ],
      "name": "getClaimTimestamp",
      "outputs": [
        {
          "internalType": "uint256",
          "name": "lastClaimTimestamp",
          "type": "uint256"
        },
        {
          "internalType": "uint256",
          "name": "nextValidClaimTimestamp",
          "type": "uint256"
        }
      ],
      "stateMutability": "view",
      "type": "function"
    },
    {
      "inputs": [],
      "name": "getDefaultRoyaltyInfo",
      "outputs": [
        {
          "internalType": "address",
          "name": "",
          "type": "address"
        },
        {
          "internalType": "uint16",
          "name": "",
          "type": "uint16"
        }
      ],
      "stateMutability": "view",
      "type": "function"
    },
    {
      "inputs": [
        {
          "internalType": "bytes32",
          "name": "role",
          "type": "bytes32"
        }
      ],
      "name": "getRoleAdmin",
      "outputs": [
        {
          "internalType": "bytes32",
          "name": "",
          "type": "bytes32"
        }
      ],
      "stateMutability": "view",
      "type": "function"
    },
    {
      "inputs": [
        {
          "internalType": "bytes32",
          "name": "role",
          "type": "bytes32"
        },
        {
          "internalType": "uint256",
          "name": "index",
          "type": "uint256"
        }
      ],
      "name": "getRoleMember",
      "outputs": [
        {
          "internalType": "address",
          "name": "",
          "type": "address"
        }
      ],
      "stateMutability": "view",
      "type": "function"
    },
    {
      "inputs": [
        {
          "internalType": "bytes32",
          "name": "role",
          "type": "bytes32"
        }
      ],
      "name": "getRoleMemberCount",
      "outputs": [
        {
          "internalType": "uint256",
          "name": "",
          "type": "uint256"
        }
      ],
      "stateMutability": "view",
      "type": "function"
    },
    {
      "inputs": [
        {
          "internalType": "uint256",
          "name": "_tokenId",
          "type": "uint256"
        }
      ],
      "name": "getRoyaltyInfoForToken",
      "outputs": [
        {
          "internalType": "address",
          "name": "",
          "type": "address"
        },
        {
          "internalType": "uint16",
          "name": "",
          "type": "uint16"
        }
      ],
      "stateMutability": "view",
      "type": "function"
    },
    {
      "inputs": [
        {
          "internalType": "bytes32",
          "name": "role",
          "type": "bytes32"
        },
        {
          "internalType": "address",
          "name": "account",
          "type": "address"
        }
      ],
      "name": "grantRole",
      "outputs": [],
      "stateMutability": "nonpayable",
      "type": "function"
    },
    {
      "inputs": [
        {
          "internalType": "bytes32",
          "name": "role",
          "type": "bytes32"
        },
        {
          "internalType": "address",
          "name": "account",
          "type": "address"
        }
      ],
      "name": "hasRole",
      "outputs": [
        {
          "internalType": "bool",
          "name": "",
          "type": "bool"
        }
      ],
      "stateMutability": "view",
      "type": "function"
    },
    {
      "inputs": [],
      "name": "implementationVersion",
      "outputs": [
        {
          "internalType": "uint256",
          "name": "major",
          "type": "uint256"
        },
        {
          "internalType": "uint256",
          "name": "minor",
          "type": "uint256"
        },
        {
          "internalType": "uint256",
          "name": "patch",
          "type": "uint256"
        }
      ],
      "stateMutability": "pure",
      "type": "function"
    },
    {
      "inputs": [
        {
          "internalType": "address",
          "name": "_defaultAdmin",
          "type": "address"
        },
        {
          "internalType": "string",
          "name": "_name",
          "type": "string"
        },
        {
          "internalType": "string",
          "name": "_symbol",
          "type": "string"
        },
        {
          "internalType": "string",
          "name": "_contractURI",
          "type": "string"
        },
        {
          "internalType": "address[]",
          "name": "_trustedForwarders",
          "type": "address[]"
        },
        {
          "internalType": "address",
          "name": "_saleRecipient",
          "type": "address"
        },
        {
          "internalType": "address",
          "name": "_royaltyRecipient",
          "type": "address"
        },
        {
          "internalType": "uint128",
          "name": "_royaltyBps",
          "type": "uint128"
        },
        {
          "internalType": "string",
          "name": "_userAgreement",
          "type": "string"
        },
        {
          "internalType": "address",
          "name": "_signatureVerifier",
          "type": "address"
        },
        {
          "internalType": "address",
          "name": "_greenlistManagerAddress",
          "type": "address"
        }
      ],
      "name": "initialize",
      "outputs": [],
      "stateMutability": "nonpayable",
      "type": "function"
    },
    {
      "inputs": [
        {
          "internalType": "address",
          "name": "owner",
          "type": "address"
        },
        {
          "internalType": "address",
          "name": "operator",
          "type": "address"
        }
      ],
      "name": "isApprovedForAll",
      "outputs": [
        {
          "internalType": "bool",
          "name": "",
          "type": "bool"
        }
      ],
      "stateMutability": "view",
      "type": "function"
    },
    {
      "inputs": [],
      "name": "isGreenlistOn",
      "outputs": [
        {
          "internalType": "bool",
          "name": "",
          "type": "bool"
        }
      ],
      "stateMutability": "view",
      "type": "function"
    },
    {
      "inputs": [],
      "name": "isICedarFeaturesV0",
      "outputs": [
        {
          "internalType": "bool",
          "name": "",
          "type": "bool"
        }
      ],
      "stateMutability": "pure",
      "type": "function"
    },
    {
      "inputs": [
        {
          "internalType": "address",
          "name": "forwarder",
          "type": "address"
        }
      ],
      "name": "isTrustedForwarder",
      "outputs": [
        {
          "internalType": "bool",
          "name": "",
          "type": "bool"
        }
      ],
      "stateMutability": "view",
      "type": "function"
    },
    {
      "inputs": [
        {
          "internalType": "uint256",
          "name": "_amount",
          "type": "uint256"
        },
        {
          "internalType": "string",
          "name": "_baseURIForTokens",
          "type": "string"
        },
        {
          "internalType": "bytes",
          "name": "_encryptedBaseURI",
          "type": "bytes"
        }
      ],
      "name": "lazyMint",
      "outputs": [],
      "stateMutability": "nonpayable",
      "type": "function"
    },
    {
      "inputs": [],
      "name": "maxTotalSupply",
      "outputs": [
        {
          "internalType": "uint256",
          "name": "",
          "type": "uint256"
        }
      ],
      "stateMutability": "view",
      "type": "function"
    },
    {
      "inputs": [],
      "name": "maxWalletClaimCount",
      "outputs": [
        {
          "internalType": "uint256",
          "name": "",
          "type": "uint256"
        }
      ],
      "stateMutability": "view",
      "type": "function"
    },
    {
      "inputs": [],
      "name": "minorVersion",
      "outputs": [
        {
          "internalType": "uint256",
          "name": "minor",
          "type": "uint256"
        },
        {
          "internalType": "uint256",
          "name": "patch",
          "type": "uint256"
        }
      ],
      "stateMutability": "pure",
      "type": "function"
    },
    {
      "inputs": [
        {
          "internalType": "bytes[]",
          "name": "data",
          "type": "bytes[]"
        }
      ],
      "name": "multicall",
      "outputs": [
        {
          "internalType": "bytes[]",
          "name": "results",
          "type": "bytes[]"
        }
      ],
      "stateMutability": "nonpayable",
      "type": "function"
    },
    {
      "inputs": [],
      "name": "name",
      "outputs": [
        {
          "internalType": "string",
          "name": "",
          "type": "string"
        }
      ],
      "stateMutability": "view",
      "type": "function"
    },
    {
      "inputs": [],
      "name": "nextTokenIdToClaim",
      "outputs": [
        {
          "internalType": "uint256",
          "name": "",
          "type": "uint256"
        }
      ],
      "stateMutability": "view",
      "type": "function"
    },
    {
      "inputs": [],
      "name": "nextTokenIdToMint",
      "outputs": [
        {
          "internalType": "uint256",
          "name": "",
          "type": "uint256"
        }
      ],
      "stateMutability": "view",
      "type": "function"
    },
    {
      "inputs": [],
      "name": "owner",
      "outputs": [
        {
          "internalType": "address",
          "name": "",
          "type": "address"
        }
      ],
      "stateMutability": "view",
      "type": "function"
    },
    {
      "inputs": [],
      "name": "ownerDomain",
      "outputs": [
        {
          "internalType": "string",
          "name": "",
          "type": "string"
        }
      ],
      "stateMutability": "view",
      "type": "function"
    },
    {
      "inputs": [
        {
          "internalType": "uint256",
          "name": "tokenId",
          "type": "uint256"
        }
      ],
      "name": "ownerOf",
      "outputs": [
        {
          "internalType": "address",
          "name": "",
          "type": "address"
        }
      ],
      "stateMutability": "view",
      "type": "function"
    },
    {
      "inputs": [],
      "name": "primarySaleRecipient",
      "outputs": [
        {
          "internalType": "address",
          "name": "",
          "type": "address"
        }
      ],
      "stateMutability": "view",
      "type": "function"
    },
    {
      "inputs": [
        {
          "internalType": "bytes32",
          "name": "role",
          "type": "bytes32"
        },
        {
          "internalType": "address",
          "name": "account",
          "type": "address"
        }
      ],
      "name": "renounceRole",
      "outputs": [],
      "stateMutability": "nonpayable",
      "type": "function"
    },
    {
      "inputs": [
        {
          "internalType": "uint256",
          "name": "index",
          "type": "uint256"
        },
        {
          "internalType": "bytes",
          "name": "_key",
          "type": "bytes"
        }
      ],
      "name": "reveal",
      "outputs": [
        {
          "internalType": "string",
          "name": "revealedURI",
          "type": "string"
        }
      ],
      "stateMutability": "nonpayable",
      "type": "function"
    },
    {
      "inputs": [
        {
          "internalType": "bytes32",
          "name": "role",
          "type": "bytes32"
        },
        {
          "internalType": "address",
          "name": "account",
          "type": "address"
        }
      ],
      "name": "revokeRole",
      "outputs": [],
      "stateMutability": "nonpayable",
      "type": "function"
    },
    {
      "inputs": [
        {
          "internalType": "uint256",
          "name": "tokenId",
          "type": "uint256"
        },
        {
          "internalType": "uint256",
          "name": "salePrice",
          "type": "uint256"
        }
      ],
      "name": "royaltyInfo",
      "outputs": [
        {
          "internalType": "address",
          "name": "receiver",
          "type": "address"
        },
        {
          "internalType": "uint256",
          "name": "royaltyAmount",
          "type": "uint256"
        }
      ],
      "stateMutability": "view",
      "type": "function"
    },
    {
      "inputs": [
        {
          "internalType": "address",
          "name": "from",
          "type": "address"
        },
        {
          "internalType": "address",
          "name": "to",
          "type": "address"
        },
        {
          "internalType": "uint256",
          "name": "tokenId",
          "type": "uint256"
        }
      ],
      "name": "safeTransferFrom",
      "outputs": [],
      "stateMutability": "nonpayable",
      "type": "function"
    },
    {
      "inputs": [
        {
          "internalType": "address",
          "name": "from",
          "type": "address"
        },
        {
          "internalType": "address",
          "name": "to",
          "type": "address"
        },
        {
          "internalType": "uint256",
          "name": "tokenId",
          "type": "uint256"
        },
        {
          "internalType": "bytes",
          "name": "_data",
          "type": "bytes"
        }
      ],
      "name": "safeTransferFrom",
      "outputs": [],
      "stateMutability": "nonpayable",
      "type": "function"
    },
    {
      "inputs": [
        {
          "internalType": "address",
          "name": "operator",
          "type": "address"
        },
        {
          "internalType": "bool",
          "name": "approved",
          "type": "bool"
        }
      ],
      "name": "setApprovalForAll",
      "outputs": [],
      "stateMutability": "nonpayable",
      "type": "function"
    },
    {
      "inputs": [
        {
          "components": [
            {
              "internalType": "uint256",
              "name": "startTimestamp",
              "type": "uint256"
            },
            {
              "internalType": "uint256",
              "name": "maxClaimableSupply",
              "type": "uint256"
            },
            {
              "internalType": "uint256",
              "name": "supplyClaimed",
              "type": "uint256"
            },
            {
              "internalType": "uint256",
              "name": "quantityLimitPerTransaction",
              "type": "uint256"
            },
            {
              "internalType": "uint256",
              "name": "waitTimeInSecondsBetweenClaims",
              "type": "uint256"
            },
            {
              "internalType": "bytes32",
              "name": "merkleRoot",
              "type": "bytes32"
            },
            {
              "internalType": "uint256",
              "name": "pricePerToken",
              "type": "uint256"
            },
            {
              "internalType": "address",
              "name": "currency",
              "type": "address"
            }
          ],
          "internalType": "struct IDropClaimConditionV0.ClaimCondition[]",
          "name": "_phases",
          "type": "tuple[]"
        },
        {
          "internalType": "bool",
          "name": "_resetClaimEligibility",
          "type": "bool"
        }
      ],
      "name": "setClaimConditions",
      "outputs": [],
      "stateMutability": "nonpayable",
      "type": "function"
    },
    {
      "inputs": [
        {
          "internalType": "string",
          "name": "_uri",
          "type": "string"
        }
      ],
      "name": "setContractURI",
      "outputs": [],
      "stateMutability": "nonpayable",
      "type": "function"
    },
    {
      "inputs": [
        {
          "internalType": "address",
          "name": "_royaltyRecipient",
          "type": "address"
        },
        {
          "internalType": "uint256",
          "name": "_royaltyBps",
          "type": "uint256"
        }
      ],
      "name": "setDefaultRoyaltyInfo",
      "outputs": [],
      "stateMutability": "nonpayable",
      "type": "function"
    },
    {
      "inputs": [
        {
          "internalType": "bool",
          "name": "_status",
          "type": "bool"
        }
      ],
      "name": "setGreenlistStatus",
      "outputs": [],
      "stateMutability": "nonpayable",
      "type": "function"
    },
    {
      "inputs": [
        {
          "internalType": "uint256",
          "name": "_maxTotalSupply",
          "type": "uint256"
        }
      ],
      "name": "setMaxTotalSupply",
      "outputs": [],
      "stateMutability": "nonpayable",
      "type": "function"
    },
    {
      "inputs": [
        {
          "internalType": "uint256",
          "name": "_count",
          "type": "uint256"
        }
      ],
      "name": "setMaxWalletClaimCount",
      "outputs": [],
      "stateMutability": "nonpayable",
      "type": "function"
    },
    {
      "inputs": [
        {
          "internalType": "address",
          "name": "_newOwner",
          "type": "address"
        }
      ],
      "name": "setOwner",
      "outputs": [],
      "stateMutability": "nonpayable",
      "type": "function"
    },
    {
      "inputs": [
        {
          "internalType": "string",
          "name": "_ownerDomain",
          "type": "string"
        }
      ],
      "name": "setOwnerDomain",
      "outputs": [],
      "stateMutability": "nonpayable",
      "type": "function"
    },
    {
      "inputs": [
        {
          "internalType": "address",
          "name": "_saleRecipient",
          "type": "address"
        }
      ],
      "name": "setPrimarySaleRecipient",
      "outputs": [],
      "stateMutability": "nonpayable",
      "type": "function"
    },
    {
      "inputs": [
        {
          "internalType": "uint256",
          "name": "_tokenId",
          "type": "uint256"
        },
        {
          "internalType": "address",
          "name": "_recipient",
          "type": "address"
        },
        {
          "internalType": "uint256",
          "name": "_bps",
          "type": "uint256"
        }
      ],
      "name": "setRoyaltyInfoForToken",
      "outputs": [],
      "stateMutability": "nonpayable",
      "type": "function"
    },
    {
      "inputs": [
        {
          "internalType": "bool",
          "name": "_status",
          "type": "bool"
        }
      ],
      "name": "setTermsStatus",
      "outputs": [],
      "stateMutability": "nonpayable",
      "type": "function"
    },
    {
      "inputs": [
        {
          "internalType": "address",
          "name": "_claimer",
          "type": "address"
        },
        {
          "internalType": "uint256",
          "name": "_count",
          "type": "uint256"
        }
      ],
      "name": "setWalletClaimCount",
      "outputs": [],
      "stateMutability": "nonpayable",
      "type": "function"
    },
    {
      "inputs": [
        {
          "internalType": "address",
          "name": "_acceptor",
          "type": "address"
        },
        {
          "internalType": "bytes",
          "name": "_signature",
          "type": "bytes"
        }
      ],
      "name": "storeTermsAccepted",
      "outputs": [],
      "stateMutability": "nonpayable",
      "type": "function"
    },
    {
      "inputs": [],
      "name": "supportedFeatures",
      "outputs": [
        {
          "internalType": "string[]",
          "name": "features",
          "type": "string[]"
        }
      ],
      "stateMutability": "pure",
      "type": "function"
    },
    {
      "inputs": [
        {
          "internalType": "bytes4",
          "name": "interfaceId",
          "type": "bytes4"
        }
      ],
      "name": "supportsInterface",
      "outputs": [
        {
          "internalType": "bool",
          "name": "",
          "type": "bool"
        }
      ],
      "stateMutability": "view",
      "type": "function"
    },
    {
      "inputs": [],
      "name": "symbol",
      "outputs": [
        {
          "internalType": "string",
          "name": "",
          "type": "string"
        }
      ],
      "stateMutability": "view",
      "type": "function"
    },
    {
      "inputs": [],
      "name": "termsActivated",
      "outputs": [
        {
          "internalType": "bool",
          "name": "",
          "type": "bool"
        }
      ],
      "stateMutability": "view",
      "type": "function"
    },
    {
      "inputs": [
        {
          "internalType": "uint256",
          "name": "index",
          "type": "uint256"
        }
      ],
      "name": "tokenByIndex",
      "outputs": [
        {
          "internalType": "uint256",
          "name": "",
          "type": "uint256"
        }
      ],
      "stateMutability": "view",
      "type": "function"
    },
    {
      "inputs": [
        {
          "internalType": "address",
          "name": "owner",
          "type": "address"
        },
        {
          "internalType": "uint256",
          "name": "index",
          "type": "uint256"
        }
      ],
      "name": "tokenOfOwnerByIndex",
      "outputs": [
        {
          "internalType": "uint256",
          "name": "",
          "type": "uint256"
        }
      ],
      "stateMutability": "view",
      "type": "function"
    },
    {
      "inputs": [
        {
          "internalType": "uint256",
          "name": "_tokenId",
          "type": "uint256"
        }
      ],
      "name": "tokenURI",
      "outputs": [
        {
          "internalType": "string",
          "name": "",
          "type": "string"
        }
      ],
      "stateMutability": "view",
      "type": "function"
    },
    {
      "inputs": [],
      "name": "totalSupply",
      "outputs": [
        {
          "internalType": "uint256",
          "name": "",
          "type": "uint256"
        }
      ],
      "stateMutability": "view",
      "type": "function"
    },
    {
      "inputs": [
        {
          "internalType": "address",
          "name": "from",
          "type": "address"
        },
        {
          "internalType": "address",
          "name": "to",
          "type": "address"
        },
        {
          "internalType": "uint256",
          "name": "tokenId",
          "type": "uint256"
        }
      ],
      "name": "transferFrom",
      "outputs": [],
      "stateMutability": "nonpayable",
      "type": "function"
    },
    {
      "inputs": [],
      "name": "userAgreement",
      "outputs": [
        {
          "internalType": "string",
          "name": "",
          "type": "string"
        }
      ],
      "stateMutability": "view",
      "type": "function"
    },
    {
      "inputs": [],
      "name": "verifier",
      "outputs": [
        {
          "internalType": "contract SignatureVerifier",
          "name": "",
          "type": "address"
        }
      ],
      "stateMutability": "view",
      "type": "function"
    },
    {
      "inputs": [
        {
          "internalType": "uint256",
          "name": "_conditionId",
          "type": "uint256"
        },
        {
          "internalType": "address",
          "name": "_claimer",
          "type": "address"
        },
        {
          "internalType": "uint256",
          "name": "_quantity",
          "type": "uint256"
        },
        {
          "internalType": "address",
          "name": "_currency",
          "type": "address"
        },
        {
          "internalType": "uint256",
          "name": "_pricePerToken",
          "type": "uint256"
        },
        {
          "internalType": "bool",
          "name": "verifyMaxQuantityPerTransaction",
          "type": "bool"
        }
      ],
      "name": "verifyClaim",
      "outputs": [],
      "stateMutability": "view",
      "type": "function"
    },
    {
      "inputs": [
        {
          "internalType": "uint256",
          "name": "_conditionId",
          "type": "uint256"
        },
        {
          "internalType": "address",
          "name": "_claimer",
          "type": "address"
        },
        {
          "internalType": "uint256",
          "name": "_quantity",
          "type": "uint256"
        },
        {
          "internalType": "bytes32[]",
          "name": "_proofs",
          "type": "bytes32[]"
        },
        {
          "internalType": "uint256",
          "name": "_proofMaxQuantityPerTransaction",
          "type": "uint256"
        }
      ],
      "name": "verifyClaimMerkleProof",
      "outputs": [
        {
          "internalType": "bool",
          "name": "validMerkleProof",
          "type": "bool"
        },
        {
          "internalType": "uint256",
          "name": "merkleProofIndex",
          "type": "uint256"
        }
      ],
      "stateMutability": "view",
      "type": "function"
    },
    {
      "inputs": [
        {
          "internalType": "address",
          "name": "",
          "type": "address"
        }
      ],
      "name": "walletClaimCount",
      "outputs": [
        {
          "internalType": "uint256",
          "name": "",
          "type": "uint256"
        }
      ],
      "stateMutability": "view",
      "type": "function"
    }
  ],
  "bytecode": "0x608060405234801561001057600080fd5b50615fe980620000216000396000f3fe6080604052600436106103785760003560e01c806301ffc9a71461037d57806305981769146103b257806306bfcec6146103d757806306fdde0314610403578063079fe40e14610425578063081812fc14610453578063095ea7b31461047357806313af40351461049557806318160ddd146104b557806323b872dd146104cb578063248a9ca3146104eb5780632a55205a1461050b5780632ab4d052146105395780632b4be9b4146105505780632b7ac3f3146105705780632dfa6a65146105965780632f2ff15d146105d05780632f745c59146105f05780633398fb181461061057806336568abe1461063057806338ac3a74146106505780633a42a074146106705780633b1475a7146106895780633ea33f29146106a05780633f3e4c11146106c057806342842e0e146106e057806342966c68146107005780634352ab41146107205780634cc157df1461074e5780634f6ccce71461079057806350867957146107b0578063572b6c05146107d05780635be7551f146107f0578063600dd5ea1461080b5780636352211e1461082b57806363b45e2d1461084b5780636f4f2837146108615780636f8934f41461088157806370a082311461090657806373b9332b146109265780637436f3dc1461093b5780637470bf2b146109615780637627f6c4146109755780637a5a8e7e14610997578063815af908146109aa57806382909959146109bf57806386ee745d146109df5780638da5cb5b146109ff5780639010d07c14610a1457806391d1485414610a34578063938e3d7b14610a5457806395d89b4114610a745780639bcf7a1514610a89578063a0a8e46014610aa9578063a217fddf14610ac5578063a22cb46514610ada578063ac9650d814610afa578063acd083f814610b27578063af3be89014610b3e578063afb8291614610b75578063b24f2d3914610b95578063b88d4fde14610bc1578063c68907de14610be1578063c87b56dd14610bf6578063ca15c87314610c16578063cb2ef6f714610c36578063ce80564214610c5d578063d37c353b14610c7d578063d547741f14610c9d578063d637ed5914610cbd578063d860483f14610cda578063dc3cf5fe14610cfa578063dd76644514610d0f578063e23b816414610d2f578063e715032214610d4f578063e8a3d48514610d6f578063e985e9c514610d84578063fcd3d74714610da4578063fec3802314610dc4575b600080fd5b34801561038957600080fd5b5061039d6103983660046152ac565b610de4565b60405190151581526020015b60405180910390f35b3480156103be57600080fd5b506103c96101cc5481565b6040519081526020016103a9565b3480156103e357600080fd5b5060008080604080519384526020840192909252908201526060016103a9565b34801561040f57600080fd5b50610418610df5565b6040516103a9919061599a565b34801561043157600080fd5b506101cb54610446906001600160a01b031681565b6040516103a99190615727565b34801561045f57600080fd5b5061044661046e36600461524c565b610e88565b34801561047f57600080fd5b5061049361048e366004614fac565b610f16565b005b3480156104a157600080fd5b506104936104b0366004614ce9565b611039565b3480156104c157600080fd5b50610193546103c9565b3480156104d757600080fd5b506104936104e6366004614d3f565b6110d8565b3480156104f757600080fd5b506103c961050636600461524c565b611110565b34801561051757600080fd5b5061052b61052636600461528a565b611125565b6040516103a99291906157a6565b34801561054557600080fd5b506103c96101cd5481565b34801561055c57600080fd5b5061049361056b366004614e19565b611162565b34801561057c57600080fd5b506101c5546104469061010090046001600160a01b031681565b3480156105a257600080fd5b5061039d6105b1366004614ce9565b6001600160a01b031660009081526101c4602052604090205460ff1690565b3480156105dc57600080fd5b506104936105eb366004615265565b611181565b3480156105fc57600080fd5b506103c961060b366004614fac565b6111a0565b34801561061c57600080fd5b5061049361062b366004614e6d565b611237565b34801561063c57600080fd5b5061049361064b366004615265565b611411565b34801561065c57600080fd5b5061049361066b366004615212565b61149f565b34801561067c57600080fd5b506101c75460ff1661039d565b34801561069557600080fd5b506103c96101c95481565b3480156106ac57600080fd5b506104936106bb366004614fac565b6114b6565b3480156106cc57600080fd5b506104936106db36600461524c565b61151f565b3480156106ec57600080fd5b506104936106fb366004614d3f565b61158e565b34801561070c57600080fd5b5061049361071b36600461524c565b6115a9565b34801561072c57600080fd5b506103c961073b366004614ce9565b6101d86020526000908152604090205481565b34801561075a57600080fd5b5061076e61076936600461524c565b6115dd565b604080516001600160a01b03909316835261ffff9091166020830152016103a9565b34801561079c57600080fd5b506103c96107ab36600461524c565b61164a565b3480156107bc57600080fd5b506104936107cb36600461524c565b6116df565b3480156107dc57600080fd5b5061039d6107eb366004614ce9565b611723565b3480156107fc57600080fd5b506101c55461039d9060ff1681565b34801561081757600080fd5b50610493610826366004614fac565b611741565b34801561083757600080fd5b5061044661084636600461524c565b6117ce565b34801561085757600080fd5b506101d0546103c9565b34801561086d57600080fd5b5061049361087c366004614ce9565b611846565b34801561088d57600080fd5b506108a161089c36600461524c565b6118a0565b6040516103a99190815181526020808301519082015260408083015190820152606080830151908201526080808301519082015260a0808301519082015260c0808301519082015260e0918201516001600160a01b0316918101919091526101000190565b34801561091257600080fd5b506103c9610921366004614ce9565b61196c565b34801561093257600080fd5b506104186119f4565b34801561094757600080fd5b506000805b604080519283526020830191909152016103a9565b34801561096d57600080fd5b50600161039d565b34801561098157600080fd5b5061098a611a83565b6040516103a991906158bb565b6104936109a5366004614fd8565b611c1c565b3480156109b657600080fd5b50610493611ddb565b3480156109cb57600080fd5b506104186109da36600461524c565b611e44565b3480156109eb57600080fd5b5061094c6109fa366004615265565b611e5e565b348015610a0b57600080fd5b50610446611ea8565b348015610a2057600080fd5b50610446610a2f36600461528a565b611ee0565b348015610a4057600080fd5b5061039d610a4f366004615265565b611f00565b348015610a6057600080fd5b50610493610a6f366004615341565b611f2b565b348015610a8057600080fd5b50610418611f46565b348015610a9557600080fd5b50610493610aa4366004615376565b611f56565b348015610ab557600080fd5b50604051600281526020016103a9565b348015610ad157600080fd5b506103c9600081565b348015610ae657600080fd5b50610493610af5366004614deb565b612011565b348015610b0657600080fd5b50610b1a610b1536600461505c565b612023565b6040516103a99190615859565b348015610b3357600080fd5b506103c96101ca5481565b348015610b4a57600080fd5b50610b5e610b59366004615404565b6120a1565b6040805192151583526020830191909152016103a9565b348015610b8157600080fd5b50610493610b9036600461539d565b612233565b348015610ba157600080fd5b506101ce546001600160a01b03811690600160a01b900461ffff1661076e565b348015610bcd57600080fd5b50610493610bdc366004614d80565b612453565b348015610bed57600080fd5b506103c961248c565b348015610c0257600080fd5b50610418610c1136600461524c565b612533565b348015610c2257600080fd5b506103c9610c3136600461524c565b61267a565b348015610c4257600080fd5b50700436564617245524337323144726f70563607c1b6103c9565b348015610c6957600080fd5b50610418610c78366004615475565b612692565b348015610c8957600080fd5b50610493610c983660046154a7565b612845565b348015610ca957600080fd5b50610493610cb8366004615265565b61294c565b348015610cc957600080fd5b506101d1546101d25461094c919082565b348015610ce657600080fd5b506103c9610cf536600461524c565b61296b565b348015610d0657600080fd5b5061041861298d565b348015610d1b57600080fd5b50610493610d2a366004615341565b61299b565b348015610d3b57600080fd5b50610493610d4a36600461518d565b6129b3565b348015610d5b57600080fd5b50610418610d6a3660046152e6565b612c84565b348015610d7b57600080fd5b50610418612cf9565b348015610d9057600080fd5b5061039d610d9f366004614d06565b612d07565b348015610db057600080fd5b50610493610dbf366004615212565b612d36565b348015610dd057600080fd5b5061039d610ddf366004614e19565b612d4d565b6000610def82612de0565b92915050565b606061015f8054610e0590615ce2565b80601f0160208091040260200160405190810160405280929190818152602001828054610e3190615ce2565b8015610e7e5780601f10610e5357610100808354040283529160200191610e7e565b820191906000526020600020905b815481529060010190602001808311610e6157829003601f168201915b5050505050905090565b6000610e9382612e85565b610ef95760405162461bcd60e51b815260206004820152602c60248201527f4552433732313a20617070726f76656420717565727920666f72206e6f6e657860448201526b34b9ba32b73a103a37b5b2b760a11b60648201526084015b60405180910390fd5b50600090815261016360205260409020546001600160a01b031690565b6000610f21826117ce565b9050806001600160a01b0316836001600160a01b03161415610f8f5760405162461bcd60e51b815260206004820152602160248201527f4552433732313a20617070726f76616c20746f2063757272656e74206f776e656044820152603960f91b6064820152608401610ef0565b806001600160a01b0316610fa1612ea3565b6001600160a01b03161480610fbd5750610fbd81610d9f612ea3565b61102a5760405162461bcd60e51b815260206004820152603860248201527f4552433732313a20617070726f76652063616c6c6572206973206e6f74206f776044820152771b995c881b9bdc88185c1c1c9bdd995908199bdc88185b1b60421b6064820152608401610ef0565b6110348383612ead565b505050565b600061104c81611047612ea3565b612f1c565b611057600083611f00565b61107457604051634345326f60e11b815260040160405180910390fd5b6101c880546001600160a01b038481166001600160a01b031983168117909355604080519190921680825260208201939093527f8292fce18fa69edf4db7b94ea2e58241df0ae57f97e0a6c9b29067028bf92d7691015b60405180910390a1505050565b6110e96110e3612ea3565b82612f80565b6111055760405162461bcd60e51b8152600401610ef090615ace565b611034838383613042565b600090815260fb602052604090206001015490565b600080600080611134866115dd565b90945084925061ffff16905061271061114d8287615c69565b6111579190615c55565b925050509250929050565b600061117081611047612ea3565b61117b8484846131da565b50505050565b61118a82611110565b61119681611047612ea3565b611034838361332a565b60006111ab8361196c565b821061120d5760405162461bcd60e51b815260206004820152602b60248201527f455243373231456e756d657261626c653a206f776e657220696e646578206f7560448201526a74206f6620626f756e647360a81b6064820152608401610ef0565b506001600160a01b0391909116600090815261019160209081526040808320938352929052205490565b600054610100900460ff166112525760005460ff161561125a565b61125a61334d565b6112bd5760405162461bcd60e51b815260206004820152602e60248201527f496e697469616c697a61626c653a20636f6e747261637420697320616c72656160448201526d191e481a5b9a5d1a585b1a5e995960921b6064820152608401610ef0565b600054610100900460ff161580156112df576000805461ffff19166101011790555b6112e761335e565b6112f08861338f565b6112fa8b8b6133c7565b61130484846133f8565b6101c78054610100600160a81b0319166101006001600160a01b038516021790556101ce80546001600160a01b038881166001600160b01b031990921691909117600160a01b61ffff891602179091556101cb80546001600160a01b0319169189169190911790558851611380906101cf9060208c0190614a2e565b506101c880546001600160a01b0319166001600160a01b038e161790556113a860008d61345e565b6113c0600080516020615f228339815191528d61345e565b6113d8600080516020615e658339815191528d61345e565b6113f1600080516020615e65833981519152600061345e565b8015611403576000805461ff00191690555b505050505050505050505050565b611419612ea3565b6001600160a01b0316816001600160a01b0316146114915760405162461bcd60e51b815260206004820152602f60248201527f416363657373436f6e74726f6c3a2063616e206f6e6c792072656e6f756e636560448201526e103937b632b9903337b91039b2b63360891b6064820152608401610ef0565b61149b8282613468565b5050565b60006114ad81611047612ea3565b61149b8261348b565b60006114c481611047612ea3565b6001600160a01b03831660008181526101d8602052604090819020849055517f8973b95d42472e89416ea69404f8038c041db700af9ec294e7b4cd4e1ff2801c906115129085815260200190565b60405180910390a2505050565b600061152d81611047612ea3565b6101c954821061155057604051638844d0c960e01b815260040160405180910390fd5b6101cd8290556040518281527ff2672935fc79f5237559e2e2999dbe743bf65430894ac2b37666890e7c69e1af906020015b60405180910390a15050565b61103483838360405180602001604052806000815250612453565b6115b46110e3612ea3565b6115d157604051634345326f60e11b815260040160405180910390fd5b6115da816134d4565b50565b60008181526101d960209081526040808320815180830190925280546001600160a01b0316808352600190910154928201929092528291156116255780516020820151611640565b6101ce546001600160a01b03811690600160a01b900461ffff165b9250925050915091565b60006116566101935490565b82106116b95760405162461bcd60e51b815260206004820152602c60248201527f455243373231456e756d657261626c653a20676c6f62616c20696e646578206f60448201526b7574206f6620626f756e647360a01b6064820152608401610ef0565b61019382815481106116cd576116cd615d8e565b90600052602060002001549050919050565b60006116ed81611047612ea3565b6101cc8290556040518281527ff9d383c69b6255cbd431ca23734f43bdf15e694c7494956c917498469bcbce7390602001611582565b6001600160a01b031660009081526065602052604090205460ff1690565b600061174f81611047612ea3565b61271082111561177257604051637d190eed60e01b815260040160405180910390fd5b6101ce805461ffff8416600160a01b026001600160b01b03199091166001600160a01b038616171790556040517f90d7ec04bcb8978719414f82e52e4cb651db41d0e6f8cea6118c2191e6183adb906110cb90859085906157a6565b600081815261016160205260408120546001600160a01b031680610def5760405162461bcd60e51b815260206004820152602960248201527f4552433732313a206f776e657220717565727920666f72206e6f6e657869737460448201526832b73a103a37b5b2b760b91b6064820152608401610ef0565b600061185481611047612ea3565b6101cb80546001600160a01b0319166001600160a01b0384169081179091556040517f299d17e95023f496e0ffc4909cff1a61f74bb5eb18de6f900f4155bfa1b3b33390600090a25050565b6118f46040518061010001604052806000815260200160008152602001600081526020016000815260200160008152602001600080191681526020016000815260200160006001600160a01b031681525090565b5060009081526101d36020908152604091829020825161010081018452815481526001820154928101929092526002810154928201929092526003820154606082015260048201546080820152600582015460a0820152600682015460c08201526007909101546001600160a01b031660e082015290565b60006001600160a01b0382166119d75760405162461bcd60e51b815260206004820152602a60248201527f4552433732313a2062616c616e636520717565727920666f7220746865207a65604482015269726f206164647265737360b01b6064820152608401610ef0565b506001600160a01b03166000908152610162602052604090205490565b6101c68054611a0290615ce2565b80601f0160208091040260200160405190810160405280929190818152602001828054611a2e90615ce2565b8015611a7b5780601f10611a5057610100808354040283529160200191611a7b565b820191906000526020600020905b815481529060010190602001808311611a5e57829003601f168201915b505050505081565b60408051600680825260e08201909252606091816020015b6060815260200190600190039081611a9b579050509050604051806060016040528060238152602001615ecd6023913981600081518110611ade57611ade615d8e565b6020026020010181905250604051806060016040528060258152602001615ea86025913981600181518110611b1557611b15615d8e565b6020026020010181905250604051806060016040528060328152602001615ef06032913981600281518110611b4c57611b4c615d8e565b6020026020010181905250604051806060016040528060328152602001615f826032913981600381518110611b8357611b83615d8e565b6020026020010181905250604051806060016040528060238152602001615e856023913981600481518110611bba57611bba615d8e565b60200260200101819052506040518060400160405280601e81526020017f7374616e646172642f494552433732312e736f6c3a494552433732315630000081525081600581518110611c0e57611c0e615d8e565b602002602001018190525090565b60026001541415611c6f5760405162461bcd60e51b815260206004820152601f60248201527f5265656e7472616e637947756172643a207265656e7472616e742063616c6c006044820152606401610ef0565b6002600155611c7d33611723565b80611c97575032611c8c612ea3565b6001600160a01b0316145b611cb457604051633d5552d360e21b815260040160405180910390fd5b6101ca546000611cc261248c565b9050600080611cdc83611cd3612ea3565b8c8a8a8a6120a1565b9150915060008560001480611d01575060008481526101d36020526040902060050154155b9050611d1884611d0f612ea3565b8d8d8d86612233565b828015611d255750600086115b15611d555760008481526101d560209081526040808320600886901c845290915290208054600160ff85161b1790555b611d608b8b8b61356b565b611d6b8c858d6135f1565b8b6001600160a01b0316611d7d612ea3565b6001600160a01b0316857ffa76a4010d9533e3e964f2930a65fb6042a12fa6ff5b08281837a10b0be7321e888f604051611dc1929190918252602082015260400190565b60405180910390a450506001805550505050505050505050565b6101c55460ff16611dfe5760405162461bcd60e51b8152600401610ef090615a99565b3360008181526101c4602052604090819020805460ff1916600117905551600080516020615f6283398151915291611e3a916101c391906159ad565b60405180910390a1565b6101d76020526000908152604090208054611a0290615ce2565b60008281526101d4602090815260408083206001600160a01b03851684528252808320548584526101d390925290912060040154810181811015611ea157506000195b9250929050565b6101c854600090611ec39082906001600160a01b0316611f00565b611ecd5750600090565b6101c8546001600160a01b03165b905090565b600082815261012d60205260408120611ef990836136d9565b9392505050565b600091825260fb602090815260408084206001600160a01b0393909316845291905290205460ff1690565b6000611f3981611047612ea3565b61117b6101cf8484614ab2565b60606101608054610e0590615ce2565b6000611f6481611047612ea3565b612710821115611f8757604051637d190eed60e01b815260040160405180910390fd5b6040805180820182526001600160a01b038581168252602080830186815260008981526101d990925290849020925183546001600160a01b0319169216919091178255516001909101555184907f7365cf4122f072a3365c20d54eff9b38d73c096c28e1892ec8f5b0e403a0f12d9061200390869086906157a6565b60405180910390a250505050565b61149b61201c612ea3565b83836136e5565b604051631592ca1b60e31b8152606090309063ac9650d89061204b90869086906004016157bf565b600060405180830381600087803b15801561206557600080fd5b505af1158015612079573d6000803e3d6000fd5b505050506040513d6000823e601f3d908101601f19168201604052611ef9919081019061509d565b60008681526101d360209081526040808320815161010081018352815481526001820154938101939093526002810154918301919091526003810154606083015260048101546080830152600581015460a08301819052600682015460c08401526007909101546001600160a01b031660e0830152829190156122275761219586868080602002602001604051908101604052809392919081815260200183836020028082843760009201919091525050505060a08301516040516001600160601b031960608d901b16602082015260348101889052605401604051602081830303815290604052805190602001206137b1565b9093509150826121b8576040516309bde33960e01b815260040160405180910390fd5b60008981526101d560209081526040808320600886901c8452909152902054600160ff84161b16156121fd576040516309bde33960e01b815260040160405180910390fd5b83158061220a5750838711155b612227576040516309bde33960e01b815260040160405180910390fd5b50965096945050505050565b60008681526101d36020908152604091829020825161010081018452815481526001820154928101929092526002810154928201929092526003820154606082015260048201546080820152600582015460a0820152600682015460c08201526007909101546001600160a01b0390811660e083018190529085161480156122be57508060c0015183145b6122da5760405162bfc92160e01b815260040160405180910390fd5b6000851180156122f657508115806122f6575080606001518511155b6123135760405163524f409b60e01b815260040160405180910390fd5b80602001518582604001516123289190615c3d565b111561234757604051638844d0c960e01b815260040160405180910390fd5b6101c954856101ca5461235a9190615c3d565b111561237957604051638844d0c960e01b815260040160405180910390fd5b6101cd54158061239a57506101cd54856101ca546123979190615c3d565b11155b6123b757604051638844d0c960e01b815260040160405180910390fd5b6101cc5415806123ee57506101cc546001600160a01b03871660009081526101d860205260409020546123eb908790615c3d565b11155b61240b57604051638844d0c960e01b815260040160405180910390fd5b6000806124188989611e5e565b91509150816000148061242b5750804210155b612448576040516337bf561360e11b815260040160405180910390fd5b505050505050505050565b61246461245e612ea3565b83612f80565b6124805760405162461bcd60e51b8152600401610ef090615ace565b61117b8484848461387f565b6101d2546101d15460009182916124a39190615c3d565b90505b6101d1548111156124fc576101d360006124c1600184615c88565b81526020019081526020016000206000015442106124ea576124e4600182615c88565b91505090565b806124f481615ccb565b9150506124a6565b5060405162461bcd60e51b815260206004820152600b60248201526a10a1a7a72224aa24a7a71760a91b6044820152606401610ef0565b606060005b6101d054811015612664576101d0818154811061255757612557615d8e565b9060005260206000200154831015612652576101d760006101d0838154811061258257612582615d8e565b9060005260206000200154815260200190815260200160002080546125a690615ce2565b159050612606576101d660006101d083815481106125c6576125c6615d8e565b906000526020600020015481526020019081526020016000206040516020016125ef9190615637565b604051602081830303815290604052915050919050565b6101d660006101d0838154811061261f5761261f615d8e565b90600052602060002001548152602001908152602001600020612641846138b2565b6040516020016125ef929190615612565b61265d600182615c3d565b9050612538565b5050604080516020810190915260008152919050565b600081815261012d60205260408120610def906139af565b6060600080516020615f228339815191526126af81611047612ea3565b6101d05485106126d2576040516363df817160e01b815260040160405180910390fd5b60006101d086815481106126e8576126e8615d8e565b9060005260206000200154905060006101d76000838152602001908152602001600020805461271690615ce2565b80601f016020809104026020016040519081016040528092919081815260200182805461274290615ce2565b801561278f5780601f106127645761010080835404028352916020019161278f565b820191906000526020600020905b81548152906001019060200180831161277257829003601f168201915b505050505090508051600014156127b9576040516332cce4d560e11b815260040160405180910390fd5b6127c4818787612c84565b60008381526101d66020908152604090912082519296506127e9929091870190614a2e565b5060008281526101d76020526040812061280291614b26565b7f09b52c0c3a3e08761cd3917c8e49275ed1e0982477b54047add8b4d70513bc868285604051612833929190615b6a565b60405180910390a15050509392505050565b600080516020615f2283398151915261286081611047612ea3565b6101c95460006128708883615c3d565b6101c981905560008181526101d660205260409020909150612893908888614ab2565b506101d080546001810182556000919091527fdc2f88c82211155f6b455c4963a9458e6529f97a9dcf57bd1faeb4bd20aef1030181905583156128ec5760008181526101d7602052604090206128ea908686614ab2565b505b7f2a0365091ef1a40953c670dce28177e37520648a6fdc91506bffac0ab045570d82600161291a8b83615c3d565b6129249190615c88565b8989898960405161293a96959493929190615b83565b60405180910390a15050505050505050565b61295582611110565b61296181611047612ea3565b6110348383613468565b6101d0818154811061297c57600080fd5b600091825260209091200154905081565b6101c38054611a0290615ce2565b60006129a981611047612ea3565b61103483836139b9565b60006129c181611047612ea3565b6101d1546101d2548184156129dd576129da8284615c3d565b90505b6101d28690556101d18190556000805b87811015612b3a57801580612a1d5750888882818110612a0f57612a0f615d8e565b905061010002016000013582105b612a3a5760405163023cf0c360e21b815260040160405180910390fd5b60006101d381612a4a8487615c3d565b8152602001908152602001600020600201549050898983818110612a7057612a70615d8e565b9050610100020160200135811115612a9b57604051638844d0c960e01b815260040160405180910390fd5b898983818110612aad57612aad615d8e565b610100029190910190506101d36000612ac68588615c3d565b81526020019081526020016000208181612ae09190615dba565b508190506101d36000612af38588615c3d565b8152602081019190915260400160002060020155898983818110612b1957612b19615d8e565b90506101000201600001359250508080612b3290615d1d565b9150506129ed565b508515612bba57835b82811015612bb45760008181526101d360209081526040822082815560018101839055600281018390556003810183905560048101839055600581018390556006810192909255600790910180546001600160a01b03191690556101d5905280612bac81615d1d565b915050612b43565b50612c53565b86831115612c5357865b83811015612c51576101d36000612bdb8386615c3d565b81526020810191909152604001600090812081815560018101829055600281018290556003810182905560048101829055600581018290556006810182905560070180546001600160a01b03191690556101d590612c398386615c3d565b81526020015280612c4981615d1d565b915050612bc4565b505b7f22ddd1bcb3816651679299dbffccb94973edec10c32e88dc2f4735c7699a02ca888860405161293a929190615910565b8251604080518083016020019091528181529060005b81811015612cf0576000858583604051602001612cb9939291906155e4565b60408051601f19818403018152919052805160209182012088840182015118858401820152612ce9915082615c3d565b9050612c9a565b50509392505050565b6101cf8054611a0290615ce2565b6001600160a01b0391821660009081526101646020908152604080832093909416825291909152205460ff1690565b6000612d4481611047612ea3565b61149b826139c6565b6101c55460405163258c1ef560e01b815260009161010090046001600160a01b03169063258c1ef590612d8890879087908790600401615778565b60206040518083038186803b158015612da057600080fd5b505afa158015612db4573d6000803e3d6000fd5b505050506040513d601f19601f82011682018060405250810190612dd8919061522f565b949350505050565b60006001600160e01b031982166301ffc9a760e01b1480610def57506001600160e01b0319821663025749ef60e01b1480610def57506001600160e01b031982161580610def57506001600160e01b03198216634c30878d60e11b1480610def57506001600160e01b0319821663d37c353b60e01b1480610def57506001600160e01b03198216631592ca1b60e31b1480610def5750506001600160e01b0319161590565b600090815261016160205260409020546001600160a01b0316151590565b6000611edb613a08565b60008181526101636020526040902080546001600160a01b0319166001600160a01b0384169081179091558190612ee3826117ce565b6001600160a01b03167f8c5be1e5ebec7d5bd14f71427d1e84f3dd0314c0f7b2291e5b200ac8c7c3b92560405160405180910390a45050565b612f268282611f00565b61149b57612f3e816001600160a01b03166014613a2a565b612f49836020613a2a565b604051602001612f5a9291906156b8565b60408051601f198184030181529082905262461bcd60e51b8252610ef09160040161599a565b6000612f8b82612e85565b612fec5760405162461bcd60e51b815260206004820152602c60248201527f4552433732313a206f70657261746f7220717565727920666f72206e6f6e657860448201526b34b9ba32b73a103a37b5b2b760a11b6064820152608401610ef0565b6000612ff7836117ce565b9050806001600160a01b0316846001600160a01b031614806130325750836001600160a01b031661302784610e88565b6001600160a01b0316145b80612dd85750612dd88185612d07565b826001600160a01b0316613055826117ce565b6001600160a01b0316146130b95760405162461bcd60e51b815260206004820152602560248201527f4552433732313a207472616e736665722066726f6d20696e636f72726563742060448201526437bbb732b960d91b6064820152608401610ef0565b6001600160a01b03821661311b5760405162461bcd60e51b8152602060048201526024808201527f4552433732313a207472616e7366657220746f20746865207a65726f206164646044820152637265737360e01b6064820152608401610ef0565b613126838383613bc5565b613131600082612ead565b6001600160a01b03831660009081526101626020526040812080546001929061315b908490615c88565b90915550506001600160a01b03821660009081526101626020526040812080546001929061318a908490615c3d565b90915550506000818152610161602052604080822080546001600160a01b0319166001600160a01b038681169182179092559151849391871691600080516020615f4283398151915291a4505050565b6101c55460ff166131fd5760405162461bcd60e51b8152600401610ef090615a99565b6101c55460405163258c1ef560e01b81526101009091046001600160a01b03169063258c1ef59061323690869086908690600401615778565b60206040518083038186803b15801561324e57600080fd5b505afa158015613262573d6000803e3d6000fd5b505050506040513d601f19601f82011682018060405250810190613286919061522f565b6132e45760405162461bcd60e51b815260206004820152602960248201527f45524337323143656461723a207369676e61747572652063616e6e6f74206265604482015268081d995c9a599a595960ba1b6064820152608401610ef0565b6001600160a01b03831660009081526101c4602052604090819020805460ff1916600117905551600080516020615f62833981519152906110cb906101c39086906159ad565b6133348282613cf4565b600082815261012d602052604090206110349082613d7b565b600061335830613d90565b15905090565b600054610100900460ff166133855760405162461bcd60e51b8152600401610ef090615b1f565b61338d613d9f565b565b600054610100900460ff166133b65760405162461bcd60e51b8152600401610ef090615b1f565b6133be613dcc565b6115da81613df3565b600054610100900460ff166133ee5760405162461bcd60e51b8152600401610ef090615b1f565b61149b8282613e82565b600054610100900460ff1661341f5760405162461bcd60e51b8152600401610ef090615b1f565b8151613433906101c3906020850190614a2e565b506101c580546001600160a01b0390921661010002610100600160a81b031990921691909117905550565b61149b828261332a565b6134728282613ed2565b600082815261012d602052604090206110349082613f57565b6101c5805460ff19168215159081179091556040519081527f973f129f1e2d7aa595b1461d5e88f9a15d2178a3209f60d73e7cf018c8e21ab6906020015b60405180910390a150565b60006134df826117ce565b90506134ed81600084613bc5565b6134f8600083612ead565b6001600160a01b038116600090815261016260205260408120805460019290613522908490615c88565b90915550506000828152610161602052604080822080546001600160a01b0319169055518391906001600160a01b03841690600080516020615f42833981519152908390a45050565b8061357557505050565b6000670de0b6b3a764000061358a8386615c69565b6135949190615c55565b90506001600160a01b03831673eeeeeeeeeeeeeeeeeeeeeeeeeeeeeeeeeeeeeeee146135d25760405162bfc92160e01b815260040160405180910390fd5b61117b836135de612ea3565b6101cb546001600160a01b031684613f6c565b60008281526101d3602052604081206002018054839290613613908490615c3d565b909155505060008281526101d4602052604081204291613631612ea3565b6001600160a01b03166001600160a01b0316815260200190815260200160002081905550806101d86000613663612ea3565b6001600160a01b03166001600160a01b0316815260200190815260200160002060008282546136929190615c3d565b90915550506101ca5460005b828110156136cf576136b08583613fb6565b6136bb600183615c3d565b91506136c8600182615c3d565b905061369e565b506101ca55505050565b6000611ef983836140e4565b816001600160a01b0316836001600160a01b031614156137435760405162461bcd60e51b815260206004820152601960248201527822a9219b99189d1030b8383937bb32903a379031b0b63632b960391b6044820152606401610ef0565b6001600160a01b0383811660008181526101646020908152604080832094871680845294825291829020805460ff191686151590811790915591519182527f17307eab39ab6107e8899845ad3d59bd9653f200f220920489ca2b5937696c31910160405180910390a3505050565b6000808281805b8751811015613873576137cc600283615c69565b915060008882815181106137e2576137e2615d8e565b60200260200101519050808411613824576040805160208101869052908101829052606001604051602081830303815290604052805190602001209350613860565b604080516020810183905290810185905260600160405160208183030381529060405280519060200120935060018361385d9190615c3d565b92505b508061386b81615d1d565b9150506137b8565b50941495939450505050565b61388a848484613042565b6138968484848461410e565b61117b5760405162461bcd60e51b8152600401610ef090615a47565b6060816138d65750506040805180820190915260018152600360fc1b602082015290565b8160005b811561390057806138ea81615d1d565b91506138f99050600a83615c55565b91506138da565b6000816001600160401b0381111561391a5761391a615da4565b6040519080825280601f01601f191660200182016040528015613944576020820181803683370190505b5090505b8415612dd857613959600183615c88565b9150613966600a86615d38565b613971906030615c3d565b60f81b81838151811061398657613986615d8e565b60200101906001600160f81b031916908160001a9053506139a8600a86615c55565b9450613948565b6000610def825490565b6110346101c68383614ab2565b6101c7805460ff19168215159081179091556040519081527fae23cc2173a8e9a060899b7376c4c8a44c9c9ff7d61c02ee68b3ff63cf2b7307906020016134c9565b6000613a1333611723565b15613a25575060131936013560601c90565b503390565b60606000613a39836002615c69565b613a44906002615c3d565b6001600160401b03811115613a5b57613a5b615da4565b6040519080825280601f01601f191660200182016040528015613a85576020820181803683370190505b509050600360fc1b81600081518110613aa057613aa0615d8e565b60200101906001600160f81b031916908160001a905350600f60fb1b81600181518110613acf57613acf615d8e565b60200101906001600160f81b031916908160001a9053506000613af3846002615c69565b613afe906001615c3d565b90505b6001811115613b76576f181899199a1a9b1b9c1cb0b131b232b360811b85600f1660108110613b3257613b32615d8e565b1a60f81b828281518110613b4857613b48615d8e565b60200101906001600160f81b031916908160001a90535060049490941c93613b6f81615ccb565b9050613b01565b508315611ef95760405162461bcd60e51b815260206004820181905260248201527f537472696e67733a20686578206c656e67746820696e73756666696369656e746044820152606401610ef0565b613bd0838383614229565b613be9600080516020615e658339815191526000611f00565b158015613bfe57506001600160a01b03831615155b8015613c1257506001600160a01b03821615155b15613c6a57613c2f600080516020615e6583398151915284611f00565b80613c4d5750613c4d600080516020615e6583398151915283611f00565b613c6a57604051634345326f60e11b815260040160405180910390fd5b6001600160a01b0382163014611034576101c554339060ff1615613ceb576001600160a01b03831660009081526101c4602090815260409182902054915160ff90921691613cbc916101c69101615654565b60405160208183030381529060405290613ce95760405162461bcd60e51b8152600401610ef0919061599a565b505b61117b816142e3565b613cfe8282611f00565b61149b57600082815260fb602090815260408083206001600160a01b03851684529091529020805460ff19166001179055613d37612ea3565b6001600160a01b0316816001600160a01b0316837f2f8788117e7eff1d82e926ec794901d17c78024a50270940304540a733656f0d60405160405180910390a45050565b6000611ef9836001600160a01b0384166143e2565b6001600160a01b03163b151590565b600054610100900460ff16613dc65760405162461bcd60e51b8152600401610ef090615b1f565b60018055565b600054610100900460ff1661338d5760405162461bcd60e51b8152600401610ef090615b1f565b600054610100900460ff16613e1a5760405162461bcd60e51b8152600401610ef090615b1f565b60005b815181101561149b57600160656000848481518110613e3e57613e3e615d8e565b6020908102919091018101516001600160a01b03168252810191909152604001600020805460ff191691151591909117905580613e7a81615d1d565b915050613e1d565b600054610100900460ff16613ea95760405162461bcd60e51b8152600401610ef090615b1f565b8151613ebd9061015f906020850190614a2e565b50805161103490610160906020840190614a2e565b613edc8282611f00565b1561149b57600082815260fb602090815260408083206001600160a01b03851684529091529020805460ff19169055613f13612ea3565b6001600160a01b0316816001600160a01b0316837ff6391f5c32d9c69d2a47ea670b442974b53935d1edc7fd64eb21e047a839171b60405160405180910390a45050565b6000611ef9836001600160a01b038416614431565b80613f765761117b565b6001600160a01b03841673eeeeeeeeeeeeeeeeeeeeeeeeeeeeeeeeeeeeeeee1415613faa57613fa58282614524565b61117b565b61117b848484846145c6565b6001600160a01b03821661400c5760405162461bcd60e51b815260206004820181905260248201527f4552433732313a206d696e7420746f20746865207a65726f20616464726573736044820152606401610ef0565b61401581612e85565b156140615760405162461bcd60e51b815260206004820152601c60248201527b115490cdcc8c4e881d1bdad95b88185b1c9958591e481b5a5b9d195960221b6044820152606401610ef0565b61406d60008383613bc5565b6001600160a01b038216600090815261016260205260408120805460019290614097908490615c3d565b90915550506000818152610161602052604080822080546001600160a01b0319166001600160a01b0386169081179091559051839290600080516020615f42833981519152908290a45050565b60008260000182815481106140fb576140fb615d8e565b9060005260206000200154905092915050565b6000614122846001600160a01b0316613d90565b1561421e57836001600160a01b031663150b7a0261413e612ea3565b8786866040518563ffffffff1660e01b8152600401614160949392919061573b565b602060405180830381600087803b15801561417a57600080fd5b505af19250505080156141aa575060408051601f3d908101601f191682019092526141a7918101906152c9565b60015b614204573d8080156141d8576040519150601f19603f3d011682016040523d82523d6000602084013e6141dd565b606091505b5080516141fc5760405162461bcd60e51b8152600401610ef090615a47565b805181602001fd5b6001600160e01b031916630a85bd0160e11b149050612dd8565b506001949350505050565b6001600160a01b03831661428657614281816101938054600083815261019460205260408120829055600182018355919091527ffc8af01f449989052b52093a58fc9f42d0b11f0c6dd5dca0463dab62346ccc680155565b6142a9565b816001600160a01b0316836001600160a01b0316146142a9576142a9838261461f565b6001600160a01b0382166142c057611034816146c1565b826001600160a01b0316826001600160a01b031614611034576110348282614776565b6142ec81613d90565b80156142fb57506101c75460ff165b156115da576101c75460405163240a823f60e01b81526101009091046001600160a01b03169063240a823f90614335908490600401615727565b60206040518083038186803b15801561434d57600080fd5b505afa158015614361573d6000803e3d6000fd5b505050506040513d601f19601f82011682018060405250810190614385919061522f565b6115da5760405162461bcd60e51b815260206004820152602860248201527f45524337323143656461723a206f70657261746f72206973206e6f7420677265604482015267195b9b1a5cdd195960c21b6064820152608401610ef0565b600081815260018301602052604081205461442957508154600181810184556000848152602080822090930184905584548482528286019093526040902091909155610def565b506000610def565b6000818152600183016020526040812054801561451a576000614455600183615c88565b855490915060009061446990600190615c88565b90508181146144ce57600086600001828154811061448957614489615d8e565b90600052602060002001549050808760000184815481106144ac576144ac615d8e565b6000918252602080832090910192909255918252600188019052604090208390555b85548690806144df576144df615d78565b600190038181906000526020600020016000905590558560010160008681526020019081526020016000206000905560019350505050610def565b6000915050610def565b6000826001600160a01b03168260405160006040518083038185875af1925050503d8060008114614571576040519150601f19603f3d011682016040523d82523d6000602084013e614576565b606091505b50509050806110345760405162461bcd60e51b815260206004820152601c60248201527b1b985d1a5d99481d1bdad95b881d1c985b9cd9995c8819985a5b195960221b6044820152606401610ef0565b816001600160a01b0316836001600160a01b031614156145e55761117b565b6001600160a01b03831630141561460a57613fa56001600160a01b03851683836147bc565b61117b6001600160a01b038516848484614812565b6000600161462c8461196c565b6146369190615c88565b6000838152610192602052604090205490915080821461468c576001600160a01b038416600090815261019160209081526040808320858452825280832054848452818420819055835261019290915290208190555b506000918252610192602090815260408084208490556001600160a01b03909416835261019181528383209183525290812055565b610193546000906146d490600190615c88565b6000838152610194602052604081205461019380549394509092849081106146fe576146fe615d8e565b9060005260206000200154905080610193838154811061472057614720615d8e565b6000918252602080832090910192909255828152610194909152604080822084905585825281205561019380548061475a5761475a615d78565b6001900381819060005260206000200160009055905550505050565b60006147818361196c565b6001600160a01b0390931660009081526101916020908152604080832086845282528083208590559382526101929052919091209190915550565b6110348363a9059cbb60e01b84846040516024016147db9291906157a6565b60408051601f198184030181529190526020810180516001600160e01b03166001600160e01b03199093169290921790915261484a565b6040516001600160a01b038085166024830152831660448201526064810182905261117b9085906323b872dd60e01b906084016147db565b600061489f826040518060400160405280602081526020017f5361666545524332303a206c6f772d6c6576656c2063616c6c206661696c6564815250856001600160a01b031661491c9092919063ffffffff16565b80519091501561103457808060200190518101906148bd919061522f565b6110345760405162461bcd60e51b815260206004820152602a60248201527f5361666545524332303a204552433230206f7065726174696f6e20646964206e6044820152691bdd081cdd58d8d9595960b21b6064820152608401610ef0565b6060612dd884846000858561493085613d90565b61497c5760405162461bcd60e51b815260206004820152601d60248201527f416464726573733a2063616c6c20746f206e6f6e2d636f6e74726163740000006044820152606401610ef0565b600080866001600160a01b0316858760405161499891906155f6565b60006040518083038185875af1925050503d80600081146149d5576040519150601f19603f3d011682016040523d82523d6000602084013e6149da565b606091505b50915091506149ea8282866149f5565b979650505050505050565b60608315614a04575081611ef9565b825115614a145782518084602001fd5b8160405162461bcd60e51b8152600401610ef0919061599a565b828054614a3a90615ce2565b90600052602060002090601f016020900481019282614a5c5760008555614aa2565b82601f10614a7557805160ff1916838001178555614aa2565b82800160010185558215614aa2579182015b82811115614aa2578251825591602001919060010190614a87565b50614aae929150614b5c565b5090565b828054614abe90615ce2565b90600052602060002090601f016020900481019282614ae05760008555614aa2565b82601f10614af95782800160ff19823516178555614aa2565b82800160010185558215614aa2579182015b82811115614aa2578235825591602001919060010190614b0b565b508054614b3290615ce2565b6000825580601f10614b42575050565b601f0160209004906000526020600020908101906115da91905b5b80821115614aae5760008155600101614b5d565b8035614b7c81615e2b565b919050565b600082601f830112614b9257600080fd5b81356020614ba7614ba283615bf3565b615bc3565b80838252828201915082860187848660051b8901011115614bc757600080fd5b60005b85811015614bef578135614bdd81615e2b565b84529284019290840190600101614bca565b5090979650505050505050565b60008083601f840112614c0e57600080fd5b5081356001600160401b03811115614c2557600080fd5b6020830191508360208260051b8501011115611ea157600080fd5b60008083601f840112614c5257600080fd5b5081356001600160401b03811115614c6957600080fd5b602083019150836020828501011115611ea157600080fd5b600082601f830112614c9257600080fd5b8135614ca0614ba282615c16565b818152846020838601011115614cb557600080fd5b816020850160208301376000918101602001919091529392505050565b80356001600160801b0381168114614b7c57600080fd5b600060208284031215614cfb57600080fd5b8135611ef981615e2b565b60008060408385031215614d1957600080fd5b8235614d2481615e2b565b91506020830135614d3481615e2b565b809150509250929050565b600080600060608486031215614d5457600080fd5b8335614d5f81615e2b565b92506020840135614d6f81615e2b565b929592945050506040919091013590565b60008060008060808587031215614d9657600080fd5b8435614da181615e2b565b93506020850135614db181615e2b565b92506040850135915060608501356001600160401b03811115614dd357600080fd5b614ddf87828801614c81565b91505092959194509250565b60008060408385031215614dfe57600080fd5b8235614e0981615e2b565b91506020830135614d3481615e40565b600080600060408486031215614e2e57600080fd5b8335614e3981615e2b565b925060208401356001600160401b03811115614e5457600080fd5b614e6086828701614c40565b9497909650939450505050565b60008060008060008060008060008060006101608c8e031215614e8f57600080fd5b614e988c614b71565b9a506001600160401b0360208d0135811015614eb357600080fd5b614ec38e60208f01358f01614c81565b9a508060408e01351115614ed657600080fd5b614ee68e60408f01358f01614c81565b99508060608e01351115614ef957600080fd5b614f098e60608f01358f01614c81565b98508060808e01351115614f1c57600080fd5b614f2c8e60808f01358f01614b81565b9750614f3a60a08e01614b71565b9650614f4860c08e01614b71565b9550614f5660e08e01614cd2565b9450806101008e01351115614f6a57600080fd5b50614f7c8d6101008e01358e01614c81565b9250614f8b6101208d01614b71565b9150614f9a6101408d01614b71565b90509295989b509295989b9093969950565b60008060408385031215614fbf57600080fd5b8235614fca81615e2b565b946020939093013593505050565b600080600080600080600060c0888a031215614ff357600080fd5b8735614ffe81615e2b565b965060208801359550604088013561501581615e2b565b94506060880135935060808801356001600160401b0381111561503757600080fd5b6150438a828b01614bfc565b989b979a5095989497959660a090950135949350505050565b6000806020838503121561506f57600080fd5b82356001600160401b0381111561508557600080fd5b61509185828601614bfc565b90969095509350505050565b600060208083850312156150b057600080fd5b82516001600160401b03808211156150c757600080fd5b818501915085601f8301126150db57600080fd5b81516150e9614ba282615bf3565b80828252858201915085850189878560051b880101111561510957600080fd5b60005b8481101561517e5781518681111561512357600080fd5b8701603f81018c1361513457600080fd5b888101516040615146614ba283615c16565b8281528e8284860101111561515a57600080fd5b615169838d8301848701615c9f565b8752505050928701929087019060010161510c565b50909998505050505050505050565b6000806000604084860312156151a257600080fd5b83356001600160401b03808211156151b957600080fd5b818601915086601f8301126151cd57600080fd5b8135818111156151dc57600080fd5b8760208260081b85010111156151f157600080fd5b6020928301955093505084013561520781615e40565b809150509250925092565b60006020828403121561522457600080fd5b8135611ef981615e40565b60006020828403121561524157600080fd5b8151611ef981615e40565b60006020828403121561525e57600080fd5b5035919050565b6000806040838503121561527857600080fd5b823591506020830135614d3481615e2b565b6000806040838503121561529d57600080fd5b50508035926020909101359150565b6000602082840312156152be57600080fd5b8135611ef981615e4e565b6000602082840312156152db57600080fd5b8151611ef981615e4e565b6000806000604084860312156152fb57600080fd5b83356001600160401b038082111561531257600080fd5b61531e87838801614c81565b9450602086013591508082111561533457600080fd5b50614e6086828701614c40565b6000806020838503121561535457600080fd5b82356001600160401b0381111561536a57600080fd5b61509185828601614c40565b60008060006060848603121561538b57600080fd5b833592506020840135614d6f81615e2b565b60008060008060008060c087890312156153b657600080fd5b8635955060208701356153c881615e2b565b94506040870135935060608701356153df81615e2b565b92506080870135915060a08701356153f681615e40565b809150509295509295509295565b60008060008060008060a0878903121561541d57600080fd5b86359550602087013561542f81615e2b565b94506040870135935060608701356001600160401b0381111561545157600080fd5b61545d89828a01614bfc565b979a9699509497949695608090950135949350505050565b60008060006040848603121561548a57600080fd5b8335925060208401356001600160401b03811115614e5457600080fd5b6000806000806000606086880312156154bf57600080fd5b8535945060208601356001600160401b03808211156154dd57600080fd5b6154e989838a01614c40565b9096509450604088013591508082111561550257600080fd5b5061550f88828901614c40565b969995985093965092949392505050565b81835281816020850137506000828201602090810191909152601f909101601f19169091010190565b60008151808452615561816020860160208601615c9f565b601f01601f19169290920160200192915050565b6000815461558281615ce2565b6001828116801561559a57600181146155ab576155da565b60ff198416875282870194506155da565b8560005260208060002060005b858110156155d15781548a8201529084019082016155b8565b50505082870194505b5050505092915050565b82848237909101908152602001919050565b60008251615608818460208701615c9f565b9190910192915050565b600061561e8285615575565b835161562e818360208801615c9f565b01949350505050565b60006156438284615575565b600360fc1b81526001019392505050565b7f5265636569766572206164647265737320686173206e6f74206163636570746581527f642074686520636f6c6c656374696f6e2773207465726d73206f662075736520602082015262030ba160ed1b60408201526000611ef96043830184615575565b76020b1b1b2b9b9a1b7b73a3937b61d1030b1b1b7bab73a1604d1b8152600083516156ea816017850160208801615c9f565b7001034b99036b4b9b9b4b733903937b6329607d1b601791840191820152835161571b816028840160208801615c9f565b01602801949350505050565b6001600160a01b0391909116815260200190565b6001600160a01b038581168252841660208201526040810183905260806060820181905260009061576e90830184615549565b9695505050505050565b6001600160a01b038416815260406020820181905260009061579d9083018486615520565b95945050505050565b6001600160a01b03929092168252602082015260400190565b60208082528181018390526000906040600585901b8401810190840186845b8781101561584c57868403603f190183528135368a9003601e1901811261580457600080fd5b890180356001600160401b0381111561581c57600080fd5b8036038b131561582b57600080fd5b6158388682898501615520565b9550505091840191908401906001016157de565b5091979650505050505050565b6000602080830181845280855180835260408601915060408160051b870101925083870160005b828110156158ae57603f1988860301845261589c858351615549565b94509285019290850190600101615880565b5092979650505050505050565b6000602080830181845280855180835260408601915060408160051b870101925083870160005b828110156158ae57603f198886030184526158fe858351615549565b945092850192908501906001016158e2565b6020808252818101839052600090604080840186845b87811015614bef578135835284820135858401528382013584840152606080830135908401526080808301359084015260a0808301359084015260c0808301359084015260e08083013561597981615e2b565b6001600160a01b031690840152610100928301929190910190600101615926565b602081526000611ef96020830184615549565b6040815260008084546159bf81615ce2565b80604086015260606001808416600081146159e157600181146159f557615a26565b60ff19851688840152608088019550615a26565b8960005260208060002060005b86811015615a1d5781548b8201870152908401908201615a02565b8a018501975050505b505050506001600160a01b0394909416602093909301929092525092915050565b60208082526032908201527f4552433732313a207472616e7366657220746f206e6f6e20455243373231526560408201527131b2b4bb32b91034b6b83632b6b2b73a32b960711b606082015260800190565b6020808252818101527f45524337323143656461723a207465726d73206e6f7420616374697661746564604082015260600190565b60208082526031908201527f4552433732313a207472616e736665722063616c6c6572206973206e6f74206f6040820152701ddb995c881b9bdc88185c1c1c9bdd9959607a1b606082015260800190565b6020808252602b908201527f496e697469616c697a61626c653a20636f6e7472616374206973206e6f74206960408201526a6e697469616c697a696e6760a81b606082015260800190565b828152604060208201526000612dd86040830184615549565b868152856020820152608060408201526000615ba3608083018688615520565b8281036060840152615bb6818587615520565b9998505050505050505050565b604051601f8201601f191681016001600160401b0381118282101715615beb57615beb615da4565b604052919050565b60006001600160401b03821115615c0c57615c0c615da4565b5060051b60200190565b60006001600160401b03821115615c2f57615c2f615da4565b50601f01601f191660200190565b60008219821115615c5057615c50615d4c565b500190565b600082615c6457615c64615d62565b500490565b6000816000190483118215151615615c8357615c83615d4c565b500290565b600082821015615c9a57615c9a615d4c565b500390565b60005b83811015615cba578181015183820152602001615ca2565b8381111561117b5750506000910152565b600081615cda57615cda615d4c565b506000190190565b600181811c90821680615cf657607f821691505b60208210811415615d1757634e487b7160e01b600052602260045260246000fd5b50919050565b6000600019821415615d3157615d31615d4c565b5060010190565b600082615d4757615d47615d62565b500690565b634e487b7160e01b600052601160045260246000fd5b634e487b7160e01b600052601260045260246000fd5b634e487b7160e01b600052603160045260246000fd5b634e487b7160e01b600052603260045260246000fd5b634e487b7160e01b600052604160045260246000fd5b813581556020820135600182015560408201356002820155606082013560038201556080820135600482015560a0820135600582015560c082013560068201556007810160e0830135615e0c81615e2b565b81546001600160a01b0319166001600160a01b03919091161790555050565b6001600160a01b03811681146115da57600080fd5b80151581146115da57600080fd5b6001600160e01b0319811681146115da57600080fdfe8502233096d909befbda0999bb8ea2f3a6be3c138b9fbf003752a4c8bce86f6c494d756c746963616c6c61626c652e736f6c3a494d756c746963616c6c61626c65563049436564617256657273696f6e65642e736f6c3a49436564617256657273696f6e6564563049436564617246656174757265732e736f6c3a4943656461724665617475726573563069737375616e63652f4943656461724e465449737375616e63652e736f6c3a4943656461724e465449737375616e636556309f2df0fed2c77648de5860a4cc508cd0818c85b8b8a1ab4ceeef8d981c8956a6ddf252ad1be2c89b69c2b068fc378daa952ba7f163c4a11628f55a4df523b3efe6f8b8b4dcb99c0bcda0ec9d87d5425c99ef716797a0343009884d11d3fe857d6c617a796d696e742f4943656461724e46544c617a794d696e742e736f6c3a4943656461724e46544c617a794d696e745630a2646970667358221220e9c62d8a87961def7f3083f2d0440aace1eeced6bf96be11d0d6ca7408dfb9b564736f6c63430008070033",
  "linkReferences": {},
  "deployedLinkReferences": {}
}